:060000000A128A110C280F
:10000800FE00030EF0000A08F1000A168A11E72E16
:100018000A128A110F288313C230FD001630FE0021
:100028007730FF00A03084000A168A1137260A129A
:100038008A110A128A11FC260A128A11EC000A1285
:100048008A11FD260A128A11ED005C3084006C309A
:100058000A168A1113260A128A11F901FA01FB01FC
:1000680083010A128A15B02E83120313D3001230AB
:100078006806031D40284128D4290A128A11EF2650
:100088000A128A116A30F6008830F7008030F800CA
:100098000A128A15B7200A128A117A0883120313E2
:1000A800CC004C07A03E840083130008F600840AA5
:1000B80000088403F7008530F8000A128A15B72073
:1000C8000A128A116330F6008830F700C030F80051
:1000D8000A128A15B7200A128A11C630F8000A30A7
:1000E800F2000030F300831203136908CC00CD013D
:1000F8004C08F4004D08F5000A128A150C220A1261
:100108008A117208303E0A168A1146260A128A1186
:10011800C730F8000A30F2000030F30083120313EE
:100128006908CC00CD014C08F4004D08F5000A120E
:100138008A15E6200A128A117208303E0A168A11B8
:1001480046260A128A11C830F8003A300A168A116F
:1001580046260A128A11C930F8000A30F200003027
:10016800F3007B0883120313CC00CD014C08F40084
:100178004D08F5000A128A150C220A128A11720813
:10018800303E0A168A1146260A128A11CA30F80029
:100198000A30F2000030F3007B0883120313CC000E
:1001A800CD014C08F4004D08F5000A128A15E62026
:1001B8000A128A117208303E0A168A1146260A1255
:1001C8008A115330F6008830F7009530F8000A128B
:1001D8008A15B7200A128A114D3083120313CE00F4
:1001E8001930CD004F30CC00CC0BF828CD0BF828B7
:1001F800CE0BF8280A128A11EF260A128A11EF305C
:10020800F6008730F7008030F8000A128A15B72008
:100218000A128A114B30F6008830F700C030F80017
:100228000A128A15B7200A128A113430F60087306C
:10023800F700D030F8000A128A15B7200A128A117E
:10024800831203136908CC00CD014C08F2004D0855
:10025800F3003C30F4000030F5000A168A119926A4
:100268000A128A117B08720783120313DE0000301A
:10027800031801307307DF005F08DD005E08DC004B
:100288005E08F2005F08F3000030F31BFF30F40053
:10029800F50001300A128A15ED220A128A11750832
:1002A80083120313B1007408B0007308AF0072081A
:1002B800AE003E30AD00EB30AC008530AB001F30F7
:1002C800AA000A128A11AA230A128A118312031396
:1002D8002D08C7002C08C6002B08C5002A08C40032
:1002E8000A128A1575220A128A1183120313450805
:1002F800E5004408E4005E08F2005F08F3000030FF
:10030800F31BFF30F400F50001300A128A15ED22C4
:100318000A128A11750883120313B1007408B00019
:100328007308AF007208AE003D30AD00F530AC0088
:10033800C230AB008F30AA000A128A11AA230A120F
:100348008A11831203132D08C7002C08C6002B0836
:10035800C5002A08C4000A128A1575220A128A11D1
:10036800831203134508E3004408E2006409CC0043
:100378006509CD00CC0A0319CD0A62084C02CE00EB
:100388006308031C630A4D02CF005E084E07E000B5
:100398005F0803185F0A4F07E100121507150514D7
:1003A8000A168A11A8270A128A111F30831203130A
:1003B8005306031DE029E129E6291211071105302A
:1003C800EE0005106908CC00CD014C08F2004D087C
:1003D800F3003C30F4000030F5000A168A11992623
:1003E8000A128A117B08720783120313DE00003099
:1003F800031801307307DF0007307A020318052A53
:10040800062A672A64085C02CC006508031C650A92
:100418005D02CD005F08803ACE004D08803A4E025A
:10042800031D182A4C085E02031C1B2A1C2A282AB2
:10043800A330F6008830F7008B30F8000A128A15CE
:10044800B7200A128A11EF2A831203136409CC0019
:100458006509CD00CC0A0319CD0A62084C02CE000A
:100468006308031C630A4D02CF005C084E07D000E6
:100478005D0803185D0A4F07D1005F08803AD20073
:100488005108803A5202031D4B2A50085E02031C91
:100498004E2A4F2A5B2A8630F6008830F7008B30C8
:1004A800F8000A128A15B7200A128A11EF2A8C302E
:1004B800F6008830F7008B30F8000A128A15B7204A
:1004C8000A128A11EF2A08307A06031D6C2A6D2A4F
:1004D800D22A5C08F2005D08F3000030F31BFF30FD
:1004E800F400F50001300A128A15ED220A128A1169
:1004F800750883120313B1007408B0007308AF00C5
:100508007208AE003E30AD00CC30AC00CC30AB0051
:10051800CD30AA000A128A11AA230A128A1183125C
:1005280003132D08C7002C08C6002B08C5002A088D
:10053800C4000A128A1575220A128A11831203133B
:1005480044085C02CC004508031C450A5D02CD0046
:100558005F08803ACE004D08803A4E02031DB62A45
:100568004C085E02031CB92ABA2AC62A8630F6004D
:100578008830F7008B30F8000A128A15B7200A1263
:100588008A11EF2A8C30F6008830F7008B30F8009B
:100598000A128A15B7200A128A11EF2A09307A0638
:1005A800031DD72AD82AE42A8630F6008830F700B7
:1005B8008B30F8000A128A15B7200A128A11EF2A1E
:1005C800A330F6008830F7008B30F8000A128A153D
:1005D800B7200A128A11C630F8000A30F20000303B
:1005E800F300831203136908CC00CD014C08F40012
:1005F8004D08F5000A128A150C220A128A1172088F
:10060800303E0A168A1146260A128A11C730F800A7
:100618000A30F2000030F300831203136908CC009B
:10062800CD014C08F4004D08F5000A128A15E620A1
:100638000A128A117208303E0A168A1146260A12D0
:100648008A11C830F8003A300A168A1146260A126A
:100658008A11C930F8000A30F2000030F3007B0834
:1006680083120313CC00CD014C08F4004D08F500AB
:100678000A128A150C220A128A117208303E0A16CA
:100688008A1146260A128A11CA30F8000A30F20086
:100698000030F3007B0883120313CC00CD014C0813
:1006A800F4004D08F5000A128A15E6200A128A118C
:1006B8007208303E0A168A1146260A128A117B08E9
:1006C800031D672B682BA92B831203136908031DCD
:1006D8006E2B6F2BA92B12110711051087140A1204
:1006E8008A11EF260A128A118430F6008730F70043
:1006F8008030F8000A128A15B7200A128A1193303E
:10070800F6008730F700C030F8000A128A15B720C3
:100718000A128A111A3083120313CE005E30CD00FC
:100728006D30CC00CC0B962BCD0B962BCE0B962B8D
:100738009D2B831203138710EE01EE0A1030E80098
:100748000A128A11EF260A128A110800831203136B
:100758002D088039B7002D08B2003207BD00AC1F44
:10076800B62BB72BB82B3D143D080319BC2BBD2B5A
:10077800CC2B3D0A031DC12BC22BCA2B0030AD0068
:100788000030AC000030AB000030AA00AC17D42B0E
:100798000030AD000030AC000030AB000030AA00E3
:1007A80031088039FF007F08B7063108B2003207E8
:1007B800BC00B01FE02BE12BE22B3C143C080319D2
:1007C800E62BE72BF62B3C0A031DEB2BEC2BF42B2B
:1007D8000030B1000030B0000030AF000030AE0093
:1007E800B017FE2B0030B1000030B0000030AF0071
:1007F8000030AE003C080319022C032C082C3D08DD
:10080800031D072C082C112C0030AD000030AC0063
:100818000030AB000030AA00EE2E2A08F2003008A3
:100828000A168A11BE260A128A1173088312031344
:10083800C3007208C2004208B200B301B401B50196
:100848003508BB003408BA003308B9003208B800CC
:100858004308B200B301B401B5013508C10034083A
:10086800C0003308BF003208BE002B08F2002F0872
:100878000A168A11BE260A128A11730883120313F4
:10088800C3007208C2004208B200B301B401B50146
:100898003208B807330803110318013E0319552C11
:1008A800B907340803110318013E03195C2CBA0771
:1008B800350803110318013E0319632CBB074308CD
:1008C800B200B301B401B5013208BE073308031101
:1008D8000318013E0319712CBF07340803110318CC
:1008E800013E0319782CC007350803110318013E8F
:1008F80003197F2CC1072C08F2002E080A168A114A
:10090800BE260A128A11730883120313C3007208E1
:10091800C2004208B200B301B401B5013208B807F9
:10092800330803110318013E03199B2CB907340837
:1009380003110318013E0319A22CBA073508031145
:100948000318013E0319A92CBB074308B200B301E1
:10095800B401B5013208BE07330803110318013E7C
:100968000319B72CBF07340803110318013E0319F4
:10097800BE2CC007350803110318013E0319C52C06
:10098800C1070830B2000310B80DB90DBA0DBB0D80
:10099800B20BC72C2B08F2002E080A168A11BE26A5
:1009A8000A128A11730883120313C3007208C20063
:1009B8004208B2004308B300B401B5013208B807D1
:1009C800330803110318013E0319EB2CB907340847
:1009D80003110318013E0319F22CBA073508031155
:1009E8000318013E0319F92CBB072A08F2002F0847
:1009F8000A168A11BE260A128A1173088312031373
:100A0800C3007208C2004208B2004308B300B40130
:100A1800B5013208B807330803110318013E03195A
:100A2800162DB907340803110318013E03191D2DAB
:100A3800BA07350803110318013E0319242DBB0713
:100A48000830B2000310B80DB90DBA0DBB0DB20BCA
:100A5800262D2A08F2002E080A168A11BE260A1226
:100A68008A11730883120313C3007208C200420874
:100A7800B2004308B300B401B5013208B80733081F
:100A880003110318013E03194A2DB907340803114D
:100A98000318013E0319512DBA073508031103182D
:100AA800013E0319582DBB072B08F20030080A161F
:100AB8008A11BE260A128A11730883120313C3000F
:100AC8007208C2004208B2004308B300B401B5017D
:100AD8003208BE07330803110318013E0319752DA8
:100AE800BF07340803110318013E03197C2DC00702
:100AF800350803110318013E0319832DC1072C087B
:100B0800F2002F080A168A11BE260A128A117308E3
:100B180083120313C3007208C2004208B2004308DC
:100B2800B300B401B5013208BE0733080311031836
:100B3800013E0319A02DBF07340803110318013E15
:100B48000319A72DC007350803110318013E03191F
:100B5800AE2DC1072C08F20030080A168A11BE26ED
:100B68000A128A11730883120313C3007208C200A1
:100B78004208B2004308B300B401B50108300310BD
:100B8800B20DB30DB40DB50DFF3E031DC32D3208D4
:100B9800BE07330803110318013E0319D42DBF07FC
:100BA800340803110318013E0319DB2DC00735086B
:100BB80003110318013E0319E22DC1073808B200DA
:100BC8003908B3003A08B4003B08B50018300310E0
:100BD800B50CB40CB30CB20CFF3E031DEB2D320860
:100BE800BE07330803110318013E0319FC2DBF0784
:100BF800340803110318013E0319032EC0073508F2
:100C080003110318013E03190A2EC1070830B20068
:100C18000310B80DB90DBA0DBB0DB20B0C2E3D0863
:100C28003C07B200B301B30D3208823EC20033085C
:100C38000318013EFF3EC3003E2E0130B2000310F0
:100C4800BE0DBF0DC00DC10DB20B232EBB1F2D2E27
:100C58002E2E2F2E3E140130B2000310B80DB90D00
:100C6800BA0DBB0DB20B312EFF30C2070318C30AF1
:100C7800FF30C307C01F412E422E212EBC01BB1FCF
:100C8800462E472E632EFF303805B200FF30390557
:100C9800B300FF303A05B4007F303B05B500350896
:100CA80034043304320403195A2E5B2E5E2EBC0121
:100CB800BC0A632E3E1C612E622E632E5B2E3C08FE
:100CC8000319672E682E992E0130BE0700300318CD
:100CD8000130BF07003003180130C0070030031887
:100CE8000130C107411C792E7A2E992E3E08B20098
:100CF8003F08B3004008B4004108B5000130B60011
:100D0800350DB50CB40CB30CB20CB60B842E3508EB
:100D1800C1003408C0003308BF003208BE000130EB
:100D2800C2070318C30A0030C3074308803AFF000C
:100D380080307F02031DA22EFF304202031CA52E25
:100D4800A62EB12E7F3083120313C1008030C0005D
:100D58000030BF000030BE00E22E831203134308A8
:100D6800803AFF0080307F02031DBC2E0130420212
:100D78000318BF2EC02ECC2E003083120313C100DF
:100D88000030C0000030BF000030BE00B701E22EC6
:100D9800831203134208BD00FF30BE05FF30BF05B4
:100DA8007F30C0050030C1053D1CDB2EDC2EDD2E5A
:100DB800C0173D08B2000310320CC1003708FF000D
:100DC8007F08C1044108AD004008AC003F08AB00F3
:100DD8003E08AA000800F20101300A168A111C27F1
:100DE8000A128A11A630F600F60BF82E0000080049
:040DF800013400348E
:100E00002034573461347334683469346E34673451
:100E100020344D3461346334683469346E3465345D
:100E200020340034203420342034203450346F34C3
:100E300077346534723420344F344E3420342034C7
:100E40002034203400342034203450346F3477344C
:100E50006534723469346E34673420344F344E3420
:100E6000203420342034003435342D345334543479
:100E70004134523454342034203436342D345034F8
:100E80004134553453344534003457346134733469
:100E9000683469346E3467342034503472346F34BB
:100EA0006734723461346D34733400342034503418
:100EB000723465347334733420344B34653479348C
:100EC0003534203454346F34203400344D3461349C
:100ED00069346E3420345334633472346534653489
:100EE0006E342E342E342E34003420345034723488
:100EF0006534733473342034533477346934743440
:100F0000633468343A340034503472346F346734A4
:100F1000203443346F346D3470346C34653474343D
:100F2000653464340034523465346D346F3476344F
:100F30006534203443346C346F347434683465342D
:100F400073340034523465347434753472346E340E
:100F500069346E346734203454346F3420340034B0
:100F600020345334573435343A34203453345434E1
:100F7000413452345434203400345734613474349E
:100F80006534723420344C346534763465346C34D2
:100F90003A34003450346C3465346134733465341D
:100FA000203443344C346F3473346534003420348B
:100FB0005334573436343A342034533454344F3461
:100FC00050342034003444344F344F3452342034BD
:100FD0003A3420344F34503445344E34003446349F
:100FE00075346E346334743469346F346E34203441
:100FF0002D34003441347134753461342034533429
:1010000074346F34723465340034453463346F346F
:1010100043346F34743474346F346E347334003446
:1010200053347434613469346E34773461347334D6
:1010300068340034443465346C3469346334613466
:101040007434653473340034423465346434733436
:10105000683465346534743473340034573461341F
:101060007334683420346F346E346C347934003423
:10107000523469346E34733465342B3444347234EE
:101080007934003444347234793420346F346E341B
:101090006C3479340034543469346D34653420341C
:1010A0003D342034003428344D344D343A345334F4
:1010B00053342934003457346F346C346C34653411
:1010C0006E3473340034543469346D3465343A34D6
:1010D00020340034503472346F3467343A3420345E
:1010E0000034543469346D3465343D342034003474
:1010F0004D3465346434693475346D340034573498
:101100006834693474346534733400345234693467
:101110006E3473346534003420345334703469349D
:101120006E3400344434613469346C3479340034BE
:101130004834653461347634793400344834693461
:10114000673468340034573461347334683400349D
:101150004134753474346F3400344C346F34773424
:0A11600000344D346134783400345B
:10116E00F20178080A168A111C270A128A15D52848
:10117E00F201F20A7708FF00760884000A168A1137
:10118E0000200A128A150A168A111C270A128A15BD
:10119E000130F6070318F70A0030F70777088312B5
:1011AE000313FF00760884000A168A1100200A1223
:1011BE008A15003A031DE428E528BF280800F70128
:1011CE00F51FEA28EB28F228F409F509F40A0319A9
:1011DE00F50AF701F70AF31FF528F628FB28F2099E
:1011EE00F309F20A0319F30A7208730403190029AA
:1011FE0001293029F601F60A0F2901300310F20DEC
:10120E00F30DFF3E031D05290130FF007F08F60791
:10121E00F31F12291329042973087502031D1929B6
:10122E0072087402031C1C291D2923297208F4025A
:10123E007308031CF503F50201300310F30CF20CD6
:10124E00FF3E031D24290130F602031D2F293029EC
:10125E00132977080319342935293A29F409F50990
:10126E00F40A0319F50A7508F3007408F200080071
:10127E00F3007308031D442945294A2983120313D9
:10128E0006083F39A3293F30831203130605F200E7
:10129E003F30720603195429552962296C086D04D2
:1012AE0003195A295B296229EC01ED01EA010608AE
:1012BE003F39EB00A2296C086D04031D67296829CC
:1012CE007A2906083F396B06031D6E296F297A2984
:1012DE0014306A020318742975297A290130FF0027
:1012EE007F08EA07A22914306A06031D7F29802988
:1012FE0087290130FF007F08EA076B088038A32991
:10130E003F300605F2003F307206031D8F299029EB
:10131E00A2296C086D04031D95299629A229013076
:10132E00EC000030ED0014306A0203189F29A0294A
:10133E00A2296B08A3293F3008000330F8008A3039
:10134E00F7005530F600F60BAA29F70BAA29F80B71
:10135E00AA29B129F20133300A168A111C270A1262
:10136E008A151B30F7009E30F600F60BBC29F70BE2
:10137E00BC290000F20133300A168A111C270A120A
:10138E008A15A630F600F60BCA290000F20133309A
:10139E000A168A111C270A128A15D529D629000089
:1013AE00F20102300A168A111C270A128A15A6307B
:1013BE00F600F60BE0290000F20128300A168A1119
:1013CE001C270A128A15A630F600F60BEC2900002F
:1013DE00F20101300A168A111C270A128A150430EE
:1013EE00F7003D30F600F60BFA29F70BFA29FF2924
:1013FE00F2010C300A168A111C270A128A15A63021
:10140E00F600F60B082A0000080083120313A10150
:10141E00F31F122A132A1A2AF209F309F20A0319E0
:10142E00F30AA101A10AF51F1D2A1E2A272AF40973
:10143E00F509F40A0319F50A0130FF007F08A10629
:10144E00A201A3017208730403192E2A2F2A662AF9
:10145E00A001A00A3D2A01300310F20DF30DFF3E4C
:10146E00031D332A0130FF007F08A007F31F402A17
:10147E00412A322A01300310A20DA30DFF3E031D97
:10148E00422A73087502031D4E2A72087402031C49
:10149E00512A522A592A7208F4027308031CF503C2
:1014AE00F502221401300310F30CF20CFF3E031D63
:1014BE005A2A0130A002031D652A662A412A2108F4
:1014CE0003196A2A6B2A702AA209A309A20A031910
:1014DE00A30A2308F3002208F20008000310831267
:1014EE000313460D470DF7007708031D7F2A802A48
:1014FE00892A0030C7000030C6000030C500003019
:10150E00C400EC2A4408C8004508C9004608CA00B1
:10151E004708CB001F300310CB0CCA0CC90CC80CEB
:10152E00FF3E031D922A4808F600C617FF30C40579
:10153E00FF30C505FF30C6050030C7059630F702EF
:10154E00F71FAA2AAB2AC52A7708803A973E0318B6
:10155E00B12AB22AB32A802A01300310C70CC60C56
:10156E00C50CC40CFF3E031DB42A0130FF007F08DA
:10157E00F707031DC32AC42AB32ADC2A20307702B8
:10158E00031CCA2ACB2AD72A802A0130C80003108E
:10159E00C40DC50DC60DC70DC80BCE2A0130F702FE
:1015AE007708031DDB2ADC2ACC2A76080319E02AE9
:1015BE00E12AEC2AC409C509C609C709C40A0319D8
:1015CE00C50A0319C60A0319C70A080083120313B2
:1015DE00A40024080319F42AF52A092BF51FF82A6A
:1015EE00F92A092B7209A6007309A7007409A8002D
:1015FE007509A900A60A0319A70A0319A80A03194F
:10160E00A90A112B7508A9007408A8007308A70071
:10161E007208A6007508740473047204031D182B57
:10162E00192B222B0030F5000030F4000030F300AF
:10163E000030F200A62B9630A500322B0130FF00B1
:10164E007F08A50701300310A90CA80CA70CA60C47
:10165E00FF3E031D2A2BFE302905031D372B382B89
:10166E00252B542B0130FF007F08A5070130A6075C
:10167E00003003180130A707003003180130A80707
:10168E00003003180130A90701300310A90CA80C73
:10169E00A70CA60CFF3E031D4C2BFF302905031D86
:1016AE00592B5A2B392B662B0130A5020130A00085
:1016BE000310A60DA70DA80DA90DA00B5F2BA81B3F
:1016CE00692B6A2B702B0230250203186F2B702B9F
:1016DE005B2B2518732B742B7C2BFF30A605FF304C
:1016EE00A7057F30A805FF30A9050310A50C250816
:1016FE00A000A101A201A30118300310A00DA10D9D
:10170E00A20DA30DFF3E031D842B2008A604210865
:10171E00A7042208A8042308A90424080319982B57
:10172E00992B9E2BF51F9C2B9D2B9E2BA9172908C1
:10173E00F5002808F4002708F3002608F200080038
:10174E0083120313A70010306806031DAF2BB02BB6
:10175E00B62B0A128A11EF260A128A15FA013730B1
:10176E00831203132706031DBD2BBE2BCE2B013078
:10177E00FF007F08FA070C307A06031DC72BC82B13
:10178E00C92BFA010A128A11EF260A128A15453060
:10179E00F6008730F7008030F8000A128A15B7205D
:1017AE000A128A15C030F8002A300A168A11462607
:1017BE000A128A150A307A020318E62BE72B272C19
:1017CE007A0883120313A5002507A03E8400831315
:1017DE000008F600840A00088403F700C230F800FF
:1017EE000A128A15B7200A128A157A088312031371
:1017FE00A5002507A23E840083130008F600840A84
:10180E0000088403F7009230F8000A128A15B720F8
:10181E000A128A157A0883120313A5002507A43E1F
:10182E00840083130008F600840A00088403F7007E
:10183E00D230F8000A128A15B7200A128A159A2C8D
:10184E000A307A06031D2C2C2D2C652C7A08831257
:10185E000313A5002507A03E840083130008F6009D
:10186E00840A00088403F700C230F8000A128A15B1
:10187E00B7200A128A157A0883120313A5002507CA
:10188E00A23E840083130008F600840A0008840335
:10189E00F7009230F8000A128A15B7200A128A153C
:1018AE00831603132008F6002108F700D230F80043
:1018BE000A128A15B7200A128A159A2C0B307A064C
:1018CE00031D6A2C6B2C9A2C7A0883120313A50025
:1018DE002507A03E840083130008F600840A000842
:1018EE008403F700C230F8000A128A15B7200A12D4
:1018FE008A15831603132008F6002108F70092308C
:10190E00F8000A128A15B7200A128A1583160313D5
:10191E002208F6002308F700D230F8000A128A15C2
:10192E00B7200A128A15080083120313A70011307C
:10193E006806031DA32CA42CAA2CF9010A128A11E5
:10194E00EF260A128A153730831203132706031D5A
:10195E00B12CB22CC22C0130FF007F08F9070530E4
:10196E007906031DBB2CBC2CBD2CF9010A128A1161
:10197E00EF260A128A15BD30F6008730F700803048
:10198E00F8000A128A15B7200A128A15C030F8001C
:10199E002A300A168A1146260A128A15033079024F
:1019AE000318DA2CDB2C1B2D790883120313A500E8
:1019BE002507B83E840083130008F600840A000849
:1019CE008403F700C230F8000A128A15B7200A12F3
:1019DE008A15790883120313A5002507BA3E8400E1
:1019EE0083130008F600840A00088403F70092307F
:1019FE00F8000A128A15B7200A128A15790883127E
:101A0E000313A5002507BC3E840083130008F600CF
:101A1E00840A00088403F700D230F8000A128A15EF
:101A2E00B7200A128A158E2D03307906031D202D3C
:101A3E00212D592D790883120313A5002507B83ED1
:101A4E00840083130008F600840A00088403F7005C
:101A5E00C230F8000A128A15B7200A128A157908C0
:101A6E0083120313A5002507BA3E840083130008D2
:101A7E00F600840A00088403F7009230F8000A1278
:101A8E008A15B7200A128A15831603133808F60032
:101A9E003908F700D230F8000A128A15B7200A1258
:101AAE008A158E2D04307906031D5E2D5F2D8E2D29
:101ABE00790883120313A5002507B83E840083130B
:101ACE000008F600840A00088403F700C230F8000C
:101ADE000A128A15B7200A128A15831603133808BC
:101AEE00F6003908F7009230F8000A128A15B7206E
:101AFE000A128A15831603133A08F6003B08F700FC
:101B0E00D230F8000A128A15B7200A128A15080078
:101B1E00812E2130FB0083120313E901AF2E2930F1
:101B2E00FB00922D2D30FB00922D7908F200F3016F
:101B3E007308003A0319A42DAF2E7208003A031948
:101B4E00962D013A0319902D033A0319962D013A59
:101B5E000319992D073A0319992DAF2E2B30FB003F
:101B6E0083120313E9013230FB0083120313E901E0
:101B7E00AF2E3930FB00922D7908F200F301730875
:101B8E00003A0319CB2DAF2E7208003A0319BA2D65
:101B9E00013A0319B52D033A0319BA2D013A031967
:101BAE00C02D073A0319C02DAF2E1A30FB00922D0F
:101BBE001F30FB00922D7908F200F3017308003AF2
:101BCE000319EA2DAF2E7208003A0319DC2D013AE3
:101BDE000319DC2D033A0319DC2D013A0319DF2D0D
:101BEE00073A0319DF2DAF2E1030FB0083120313BB
:101BFE00E901E90AAF2E2430FB0083120313E90139
:101C0E00E90A1C30FB00922D1D30FB00AF2E2E304A
:101C1E00FB0083120313E9013530FB00831203131B
:101C2E00E901AF2E3C30FB00922D7908F200F30152
:101C3E007308003A0319242EAF2E7208003A0319C6
:101C4E00132E013A03190E2E033A0319132E013ADD
:101C5E000319192E073A0319192EAF2E1230FB0055
:101C6E0083120313E9013B2E1430FB00831203137E
:101C7E00E901AF2E7908F200F3017308003A031957
:101C8E00492EAF2E7208003A03193B2E013A031962
:101C9E00352E033A03193B2E013A03193B2E073A10
:101CAE0003193B2EAF2E0630FB00AF2E1030FB007B
:101CBE0083120313E9011530FB0083120313E901AC
:101CCE00AF2E7908F200F3017308003A0319702E53
:101CDE00AF2E7208003A0319622E013A03195D2ED7
:101CEE00033A0319622E013A0319DC2D073A031940
:101CFE00DC2DAF2E7A08F200F3017308003A0319B7
:101D0E00892EAF2E7208003A03199C2D013A031941
:101D1E00C32D033A0319E22D013A0319FB2D073A9D
:101D2E000319022E013A0319082E033A03190B2E3A
:101D3E00013A03191C2E0F3A0319412E013A0319C9
:101D4E005A2E033A0319682E013A0319682EAF2E44
:101D5E00080083120313EE01EE0A0A168A115B269F
:101D6E000A128A155630F6008730F7008030F800D8
:101D7E000A128A15B7200A128A151230F600873019
:101D8E00F700C030F8000A128A15B7200A128A1519
:101D9E000030F6008730F7009030F8000A128A15EE
:101DAE00B7200A128A15F42E83120313D701D80115
:101DBE00013083120313D7070318D80A0030D8074F
:101DCE005808803AFF008B307F02031DF02EB8308A
:101DDE005702031CF32EF42EDF2E01300A128A1541
:101DEE003F210A128A152F3A031DFE2EFF2EDB2EDF
:101DFE000A128A11EF260A128A150A168A1152271A
:101E0E000A128A15103083120313E80001300A12E9
:101E1E008A153F210A128A1583120313DB00D9019A
:101E2E00DA01013083120313D9070318DA0A0030DE
:101E3E00DA075A08803AFF008B307F02031D292FE4
:101E4E00B8305902031C2C2F2D2F182FB7308312A8
:101E5E0003135B06031D342F352F3F2F6E03031D17
:101E6E00392F3A2F3F2F0230EE001130E800E32FCA
:101E7E00B7305B06031D442F452F7B2F02306E06B5
:101E8E00031D4A2F4B2F7B2F0A128A158F250A12FC
:101E9E008A150A128A11EF260A128A157530F60073
:101EAE008730F7008030F8000A128A15B7200A1220
:101EBE008A15B030F6008730F700C030F8000A12ED
:101ECE008A15B7200A128A15D730F6008730F70028
:101EDE009030F8000A128A15B7200A128A150330BC
:101EEE0083120313EE00E32F2F305B06031D802FAA
:101EFE00812F8D2F05306E06031D862F872F8D2F78
:101F0E001215071505140430EE00E32FE32F5B08BE
:101F1E000A128A15A7230A128A15F92F5B080A12CC
:101F2E008A159B240A128A15F92F2F305B06031D82
:101F3E00A12FA22FA72F0430EE001230E8000D2F94
:101F4E001F305B06031DAC2FAD2FF92F0A128A111D
:101F5E00EF260A128A15A230F6008730F70082307B
:101F6E00F8000A128A15B7200A128A156630F60092
:101F7E008730F700C230F8000A128A15B7200A120D
:101F8E008A151A3083120313D6005E30D5006D30D9
:101F9E00D400D40BD02FD50BD02FD60BD02FD72FBC
:101FAE0083120313EE01EE0A092F5B080A128A113F
:101FBE0038200A128A15F92F6E08D400D50155085B
:101FCE00003A0319EB2FF92F5408013A03198E2FFB
:101FDE00033A0319952F013A03199C2F073A031957
:101FEE00DC2FF92F83120313E8010D2F0A128A1129
:101FFE000C28FF1B0A2883137F1883170008840AF6
:10200E000319FF0A08007F087F398A000408840A32
:06201E000319FF0A820015
:102C1A008316031306083F38860008006400800103
:102C2A00840A0406031900340406142E83160313B7
:102C3A008801091189100A128A15A4210A168A1113
:102C4A0008008312031312149214FA308316031322
:102C5A0092008C1483120313121108007E088A0052
:102C6A007F0882000A168A1133260A168A11800002
:102C7A00840A04087D0603190034FF0A0319FE0AB0
:102C8A00372E83120313A400F20178080A168A1158
:102C9A001C270A168A11F201F20A83120313240866
:102CAA000A168A111C270A168A1108000A168A119E
:102CBA001B260A168A110A168A110D260A168A1165
:102CCA000A168A1126260A168A110B178316031367
:102CDA00871007118B1706309F0085018312031393
:102CEA008501080092348834983488341A34883438
:102CFA007F34883410348834053488345B3488341B
:102D0A002434883438348834423488342E3488342D
:102D1A00FA348734A8348834AD3488347834883423
:102D2A009E348834B1348834F601F701721C9E2E21
:102D3A009F2EA52E7408F6070318F70A7508F707D9
:102D4A0001300310F40DF50DFF3E031DA62E0130D0
:102D5A000310F30CF20CFF3E031DAD2E7208730430
:102D6A00031DB82EB92E9B2E7708F3007608F200C1
:102D7A00080083120313A400A001A1017208F40041
:102D8A00F5017408A2007508A300241CCD2ECE2ECE
:102D9A00D42E2208A0070318A10A2308A10701308C
:102DAA000310A20DA30DFF3E031DD52E0310A40C84
:102DBA002408031DE12EE22ECA2E2108F300200862
:102DCA00F2000800831203138C1CEC2EED2E152F33
:102DDA000130E6070318E70A0030E707E230660623
:102DEA00043003196706031DFB2EFC2E142FE6017F
:102DFA00E7017B080319022F032F062F0130FB027C
:102E0A00142F7B08031D0A2F0B2F142F690803198F
:102E1A000F2F102F142F0130E9023B30FB008C10CA
:102E2A0071088A00700E8300FE0E7E0E0900F500FE
:102E3A007218202F242F831203130915272F8312A8
:102E4A00031309117508F03988008914A630F300B4
:102E5A00F30B2D2F000083120313891075080F3905
:102E6A00F30003300310F30DFF3E031D372F031049
:102E7A00730D88008914A630F300F30B422F00006B
:102E8A008312031389101B30F4009E30F300F30BF6
:102E9A004C2FF40B4C2F0000080083120313A801D7
:102EAA002808803EF8002A300A168A1146260A1691
:102EBA008A110130FF007F0883120313A80710301C
:102ECA002802031C692F6A2F552F2330F6008730FA
:102EDA00F700C030F8000A128A15B7200A168A11BC
:102EEA000030F6008730F7009030F8000A128A1591
:102EFA00B7200A168A1183120313A9012908D03EA2
:102F0A00F8002A300A168A1146260A168A11013052
:102F1A00FF007F0883120313A90710302902031C3C
:102F2A00972F982F832F1A3083120313A7005E302E
:102F3A00A6006D30A500A50BA02FA60BA02FA70BEE
:102F4A00A02FA72F0800831203130618AD2FAE2F48
:102F5A00FF2F87140711051012110A128A11EF2682
:102F6A000A168A11E330F6008730F7008030F8003D
:102F7A000A128A15B7200A168A11CA30F600873053
:102F8A00F700C030F8000A128A15B7200A168A110B
:102F9A0083120313061CD22FD32FCD2F0A128A11A4
:102FAA00EF260A168A11EF30F6008730F7008030D4
:102FBA00F8000A128A15B7200A168A117130F6002B
:102FCA008830F700C030F8000A128A15B7200A16AE
:102FDA008A113430F6008730F700D030F8000A1230
:102FEA008A15B7200A168A118312031307150514C6
:062FFA001215871008000B
:02400E00FB3F76
:00000001FF
